[
["The following are deserialized transactions which are invalid."],
["They are in the form"],
["[[[prevout hash, prevout index, prevout scriptPubKey], [input 2], ...],"],
["serialised transaction, verbose verification flags"],
["Objects that are only a single string (like this one) are ignored"],

["An invalid P2SH Transaction"],
[[["0000000000000000000000000000000000000000000000000000000000000100", 0, "HASH160 0x14 0x7a052c840ba73af26755de42cf01cc9e0a49fef0 EQUAL"]],
"02000000ffffff550100010000000000000000000000000000000000000000000000000000000000000000000009085768617420697320ffffffff0140420f000000000001510000000000", "P2SH"],

["No inputs"],
[[["0000000000000000000000000000000000000000000000000000000000000100", 0, "HASH160 0x14 0x7a052c840ba73af26755de42cf01cc9e0a49fef0 EQUAL"]],
"02000000ffffff55000140420f000000000001510000000000", "P2SH"],

["No outputs"],
[[["0000000000000000000000000000000000000000000000000000000000000100", 0, "HASH160 0x14 0x05ab9e14d983742513f0f451e105ffb4198d1dd4 EQUAL"]],
"02000000ffffff55010001000000000000000000000000000000000000000000000000000000000000000000006d483045022100f16703104aab4e4088317c862daec83440242411b039d14280e03dd33b487ab802201318a7be236672c5c56083eb7a5a195bc57a40af7923ff8545016cd3b571e2a601232103c40e5d339df3f30bf753e7e04450ae4ef76c9e45587d1d993bdc4cd06f0651c7acffffffff000000000000", "P2SH"],

["Negative output"],
[[["0000000000000000000000000000000000000000000000000000000000000100", 0, "HASH160 0x14 0xae609aca8061d77c5e111f6bb62501a6bbe2bfdb EQUAL"]],
"02000000ffffff55010001000000000000000000000000000000000000000000000000000000000000000000006d4830450220063222cbb128731fc09de0d7323746539166544d6c1df84d867ccea84bcc8903022100bf568e8552844de664cd41648a031554327aa8844af34b4f27397c65b92c04de0123210243ec37dee0e2e053a9c976f43147e79bc7d9dc606ea51010af1ac80db6b069e1acffffffff01ffffffffffffffff01510000000000", "P2SH"],

["Duplicate inputs"],
[[["0000000000000000000000000000000000000000000000000000000000000100", 0, "HASH160 0x14 0x236d0639db62b0773fd8ac34dc85ae19e9aba80a EQUAL"]],
"02000000ffffff55020001000000000000000000000000000000000000000000000000000000000000000000006c47304402204bb1197053d0d7799bf1b30cd503c44b58d6240cccbdc85b6fe76d087980208f02204beeed78200178ffc6c74237bb74b3f276bbb4098b5605d814304fe128bf1431012321039e8815e15952a7c3fada1905f8cf55419837133bd7756c0ef14fc8dfe50c0deaacffffffff0001000000000000000000000000000000000000000000000000000000000000000000006c47304402202306489afef52a6f62e90bf750bbcdf40c06f5c6b138286e6b6b86176bb9341802200dba98486ea68380f47ebb19a7df173b99e6bc9c681d6ccf3bde31465d1f16b3012321039e8815e15952a7c3fada1905f8cf55419837133bd7756c0ef14fc8dfe50c0deaacffffffff0140420f000000000001510000000000", "P2SH"],

["Coinbase of size 1"],
["Note the input is just required to make the tester happy"],
[[["0000000000000000000000000000000000000000000000000000000000000000", -1, "1"]],
"02000000ffffff55010000000000000000000000000000000000000000000000000000000000000000ffffffff0151ffffffff01000000000000000001510000000000", "P2SH"],

["Coinbase of size 101"],
["Note the input is just required to make the tester happy"],
[[["0000000000000000000000000000000000000000000000000000000000000000", -1, "1"]],
"02000000ffffff55010000000000000000000000000000000000000000000000000000000000000000ffffffff655151515151515151515151515151515151515151515151515151515151515151515151515151515151515151515151515151515151515151515151515151515151515151515151515151515151515151515151515151515151515151515151515151515151ffffffff0100000000000000000151000000000000", "P2SH"],

["Null txin"],
[[["0000000000000000000000000000000000000000000000000000000000000000", -1, "HASH160 0x14 0x02dae7dbbda56097959cba59b1989dd3e47937bf EQUAL"]],
"02000000ffffff55010000000000000000000000000000000000000000000000000000000000000000ffffffff6e49304602210086f39e028e46dafa8e1e3be63906465f4cf038fbe5ed6403dc3e74ae876e6431022100c4625c675cfc5c7e3a0e0d7eaec92ac24da20c73a88eb40d09253e51ac6def5201232103a183ddc41e84753aca47723c965d1b5c8b0e2b537963518355e6dd6cf8415e50acffffffff0140420f000000000001510000000000", "P2SH"],

["By-height locks, with argument just beyond tx nLockTime"],
[[["0000000000000000000000000000000000000000000000000000000000000100", 0, "1 CHECKLOCKTIMEVERIFY 1"]],
"02000000ffffff550100010000000000000000000000000000000000000000000000000000000000000000000000000000000140420f0000000000000000000000", "P2SH,LOCKTIME"],
[[["0000000000000000000000000000000000000000000000000000000000000100", 0, "499999999 CHECKLOCKTIMEVERIFY 1"]],
"02000000ffffff550100010000000000000000000000000000000000000000000000000000000000000000000000000000000140420f000000000000fe64cd1d00", "P2SH,LOCKTIME"],

["By-time locks, with argument just beyond tx nLockTime (but within numerical boundries)"],
[[["0000000000000000000000000000000000000000000000000000000000000100", 0, "500000001 CHECKLOCKTIMEVERIFY 1"]],
"02000000ffffff550100010000000000000000000000000000000000000000000000000000000000000000000000000000000140420f0000000000000065cd1d00", "P2SH,LOCKTIME"],
[[["0000000000000000000000000000000000000000000000000000000000000100", 0, "4294967295 CHECKLOCKTIMEVERIFY 1"]],
"02000000ffffff550100010000000000000000000000000000000000000000000000000000000000000000000000000000000140420f000000000000feffffff00", "P2SH,LOCKTIME"],

["Argument negative with by-blockheight nLockTime=0"],
[[["0000000000000000000000000000000000000000000000000000000000000100", 0, "-1 CHECKLOCKTIMEVERIFY 1"]],
"02000000ffffff550100010000000000000000000000000000000000000000000000000000000000000000000000000000000140420f0000000000000000000000", "P2SH,LOCKTIME"],

["Argument negative with by-blocktime nLockTime=500,000,000"],
[[["0000000000000000000000000000000000000000000000000000000000000100", 0, "-1 CHECKLOCKTIMEVERIFY 1"]],
"02000000ffffff550100010000000000000000000000000000000000000000000000000000000000000000000000000000000140420f0000000000000065cd1d00", "P2SH,LOCKTIME"],

["Input locked"],
[[["0000000000000000000000000000000000000000000000000000000000000100", 0, "0 CHECKLOCKTIMEVERIFY 1"]],
"02000000ffffff550100010000000000000000000000000000000000000000000000000000000000000000000000ffffffff0140420f0000000000000000000000", "P2SH,LOCKTIME"],
[[["0000000000000000000000000000000000000000000000000000000000000100", 0, "0"]],
"02000000ffffff55010001000000000000000000000000000000000000000000000000000000000000000000000251b1ffffffff0140420f0000000000000200000000", "P2SH,LOCKTIME"],

["Another input being unlocked isn't sufficient; the CHECKLOCKTIMEVERIFY-using input must be unlocked"],
[[["0000000000000000000000000000000000000000000000000000000000000100", 0, "0 CHECKLOCKTIMEVERIFY 1"] ,
  ["0000000000000000000000000000000000000000000000000000000000000200", 1, "1"]],
"02000000ffffff550200010000000000000000000000000000000000000000000000000000000000000000000000ffffffff00020000000000000000000000000000000000000000000000000000000000000100000000000000000140420f0000000000000000000000", "P2SH,LOCKTIME"],

["Argument/tx height/time mismatch, both versions"],
[[["0000000000000000000000000000000000000000000000000000000000000100", 0, "0 CHECKLOCKTIMEVERIFY 1"]],
"02000000ffffff550100010000000000000000000000000000000000000000000000000000000000000000000000000000000140420f0000000000000065cd1d00", "P2SH,LOCKTIME"],
[[["0000000000000000000000000000000000000000000000000000000000000100", 0, "0"]],
"02000000ffffff55010001000000000000000000000000000000000000000000000000000000000000000000000251b1000000000140420f0000000000000065cd1d00", "P2SH,LOCKTIME"],
[[["0000000000000000000000000000000000000000000000000000000000000100", 0, "499999999 CHECKLOCKTIMEVERIFY 1"]],
"02000000ffffff550100010000000000000000000000000000000000000000000000000000000000000000000000000000000140420f0000000000000065cd1d00", "P2SH,LOCKTIME"],
[[["0000000000000000000000000000000000000000000000000000000000000100", 0, "500000000 CHECKLOCKTIMEVERIFY 1"]],
"02000000ffffff550100010000000000000000000000000000000000000000000000000000000000000000000000000000000140420f0000000000000000000000", "P2SH,LOCKTIME"],
[[["0000000000000000000000000000000000000000000000000000000000000100", 0, "500000000 CHECKLOCKTIMEVERIFY 1"]],
"02000000ffffff550100010000000000000000000000000000000000000000000000000000000000000000000000000000000140420f000000000000ff64cd1d00", "P2SH,LOCKTIME"],

["Argument 2^32 with nLockTime=2^32-1"],
[[["0000000000000000000000000000000000000000000000000000000000000100", 0, "4294967296 CHECKLOCKTIMEVERIFY 1"]],
"02000000ffffff550100010000000000000000000000000000000000000000000000000000000000000000000000000000000140420f000000000000ffffffff00", "P2SH,LOCKTIME"],

["Same, but with nLockTime=2^31-1"],
[[["0000000000000000000000000000000000000000000000000000000000000100", 0, "2147483648 CHECKLOCKTIMEVERIFY 1"]],
"02000000ffffff550100010000000000000000000000000000000000000000000000000000000000000000000000000000000140420f000000000000ffffff7f00", "P2SH,LOCKTIME"],

["6 byte non-minimally-encoded arguments are invalid even in their contents are valid"],
[[["0000000000000000000000000000000000000000000000000000000000000100", 0, "0x06 0x000000000000 CHECKLOCKTIMEVERIFY 1"]],
"02000000ffffff550100010000000000000000000000000000000000000000000000000000000000000000000000000000000140420f0000000000000000000000", "P2SH,LOCKTIME"],

["Failure due to failing CHECKLOCKTIMEVERIFY in scriptSig"],
[[["0000000000000000000000000000000000000000000000000000000000000100", 0, "1"]],
"02000000ffffff55010001000000000000000000000000000000000000000000000000000000000000000000000251b1000000000140420f0000000000000000000000", "P2SH,LOCKTIME"],

["Failure due to failing CHECKLOCKTIMEVERIFY in redeemScript"],
[[["0000000000000000000000000000000000000000000000000000000000000100", 0, "HASH160 0x14 0xc5b93064159b3b2d6ab506a41b1f50463771b988 EQUAL"]],
"02000000ffffff5501000100000000000000000000000000000000000000000000000000000000000000000000030251b1000000000140420f0000000000000000000000", "P2SH,LOCKTIME"],

["Make diffs cleaner by leaving a comment here without comma at the end"]
]
